{
  "_format": "hh-sol-artifact-1",
  "contractName": "TaskStorage",
  "sourceName": "contracts/TaskStorage.sol",
  "abi": [
    {
      "inputs": [
        {
          "internalType": "string",
          "name": "_task",
          "type": "string"
        },
        {
          "internalType": "string[]",
          "name": "_subtask",
          "type": "string[]"
        },
        {
          "internalType": "string[]",
          "name": "_fields",
          "type": "string[]"
        }
      ],
      "name": "addTask",
      "outputs": [],
      "stateMutability": "nonpayable",
      "type": "function"
    },
    {
      "inputs": [
        {
          "internalType": "uint256",
          "name": "_taskId",
          "type": "uint256"
        },
        {
          "internalType": "uint256",
          "name": "_subtaskId",
          "type": "uint256"
        },
        {
          "internalType": "address",
          "name": "_solver",
          "type": "address"
        }
      ],
      "name": "assignSubTask",
      "outputs": [],
      "stateMutability": "nonpayable",
      "type": "function"
    },
    {
      "inputs": [
        {
          "internalType": "address",
          "name": "",
          "type": "address"
        },
        {
          "internalType": "uint256",
          "name": "",
          "type": "uint256"
        },
        {
          "internalType": "uint256",
          "name": "",
          "type": "uint256"
        },
        {
          "internalType": "uint256",
          "name": "",
          "type": "uint256"
        }
      ],
      "name": "assignedExperts",
      "outputs": [
        {
          "internalType": "address",
          "name": "",
          "type": "address"
        }
      ],
      "stateMutability": "view",
      "type": "function"
    },
    {
      "inputs": [
        {
          "internalType": "string",
          "name": "",
          "type": "string"
        },
        {
          "internalType": "uint256",
          "name": "",
          "type": "uint256"
        }
      ],
      "name": "fieldExperts",
      "outputs": [
        {
          "internalType": "address",
          "name": "",
          "type": "address"
        }
      ],
      "stateMutability": "view",
      "type": "function"
    },
    {
      "inputs": [],
      "name": "getAllTask",
      "outputs": [
        {
          "components": [
            {
              "internalType": "uint256",
              "name": "taskId",
              "type": "uint256"
            },
            {
              "internalType": "string",
              "name": "task",
              "type": "string"
            },
            {
              "components": [
                {
                  "internalType": "uint256",
                  "name": "subtaskId",
                  "type": "uint256"
                },
                {
                  "internalType": "string",
                  "name": "subtask",
                  "type": "string"
                },
                {
                  "internalType": "string",
                  "name": "field",
                  "type": "string"
                },
                {
                  "internalType": "string",
                  "name": "status",
                  "type": "string"
                }
              ],
              "internalType": "struct TaskStorage.Subtasks[]",
              "name": "subtasks",
              "type": "tuple[]"
            },
            {
              "internalType": "string",
              "name": "status",
              "type": "string"
            }
          ],
          "internalType": "struct TaskStorage.Tasks[]",
          "name": "",
          "type": "tuple[]"
        }
      ],
      "stateMutability": "view",
      "type": "function"
    },
    {
      "inputs": [
        {
          "internalType": "uint256",
          "name": "_taskId",
          "type": "uint256"
        },
        {
          "internalType": "uint256",
          "name": "_subtaskId",
          "type": "uint256"
        }
      ],
      "name": "getAssignedExperts",
      "outputs": [
        {
          "internalType": "address[]",
          "name": "",
          "type": "address[]"
        }
      ],
      "stateMutability": "view",
      "type": "function"
    },
    {
      "inputs": [
        {
          "internalType": "string",
          "name": "field",
          "type": "string"
        }
      ],
      "name": "getFieldExperts",
      "outputs": [
        {
          "internalType": "address[]",
          "name": "",
          "type": "address[]"
        }
      ],
      "stateMutability": "view",
      "type": "function"
    },
    {
      "inputs": [
        {
          "internalType": "string",
          "name": "field",
          "type": "string"
        }
      ],
      "name": "registerExpert",
      "outputs": [],
      "stateMutability": "nonpayable",
      "type": "function"
    }
  ],
  "bytecode": "0x6080604052348015600f57600080fd5b506119798061001f6000396000f3fe608060405234801561001057600080fd5b50600436106100885760003560e01c80633b19aead1161005b5780633b19aead146101135780633b68b6ff14610143578063ad539c4714610173578063bf8c433c1461018f57610088565b8063060f72151461008d5780631bbaf3cf146100a95780631fd4139d146100c757806324c3e399146100f7575b600080fd5b6100a760048036038101906100a29190610d86565b6101bf565b005b6100b1610241565b6040516100be91906110cd565b60405180910390f35b6100e160048036038101906100dc9190610d86565b61062f565b6040516100ee91906111df565b60405180910390f35b610111600480360381019061010c9190611259565b6106db565b005b61012d600480360381019061012891906112ac565b6107a2565b60405161013a9190611317565b60405180910390f35b61015d60048036038101906101589190611332565b610806565b60405161016a9190611317565b60405180910390f35b61018d6004803603810190610188919061147f565b61086e565b005b6101a960048036038101906101a49190611526565b610b3c565b6040516101b691906111df565b60405180910390f35b6001816040516101cf91906115a2565b9081526020016040518091039020339080600181540180825580915050600190039060005260206000200160009091909190916101000a81548173ffffffffffffffffffffffffffffffffffffffff021916908373ffffffffffffffffffffffffffffffffffffffff16021790555050565b606060008060003373ffffffffffffffffffffffffffffffffffffffff1673ffffffffffffffffffffffffffffffffffffffff168152602001908152602001600020805480602002602001604051908101604052809291908181526020016000905b828210156106225783829060005260206000209060040201604051806080016040529081600082015481526020016001820180546102e0906115e8565b80601f016020809104026020016040519081016040528092919081815260200182805461030c906115e8565b80156103595780601f1061032e57610100808354040283529160200191610359565b820191906000526020600020905b81548152906001019060200180831161033c57829003601f168201915b5050505050815260200160028201805480602002602001604051908101604052809291908181526020016000905b828210156105795783829060005260206000209060040201604051806080016040529081600082015481526020016001820180546103c4906115e8565b80601f01602080910402602001604051908101604052809291908181526020018280546103f0906115e8565b801561043d5780601f106104125761010080835404028352916020019161043d565b820191906000526020600020905b81548152906001019060200180831161042057829003601f168201915b50505050508152602001600282018054610456906115e8565b80601f0160208091040260200160405190810160405280929190818152602001828054610482906115e8565b80156104cf5780601f106104a4576101008083540402835291602001916104cf565b820191906000526020600020905b8154815290600101906020018083116104b257829003601f168201915b505050505081526020016003820180546104e8906115e8565b80601f0160208091040260200160405190810160405280929190818152602001828054610514906115e8565b80156105615780601f1061053657610100808354040283529160200191610561565b820191906000526020600020905b81548152906001019060200180831161054457829003601f168201915b50505050508152505081526020019060010190610387565b505050508152602001600382018054610591906115e8565b80601f01602080910402602001604051908101604052809291908181526020018280546105bd906115e8565b801561060a5780601f106105df5761010080835404028352916020019161060a565b820191906000526020600020905b8154815290600101906020018083116105ed57829003601f168201915b505050505081525050815260200190600101906102a3565b5050505090508091505090565b606060018260405161064191906115a2565b90815260200160405180910390208054806020026020016040519081016040528092919081815260200182805480156106cf57602002820191906000526020600020905b8160009054906101000a900473ffffffffffffffffffffffffffffffffffffffff1673ffffffffffffffffffffffffffffffffffffffff1681526020019060010190808311610685575b50505050509050919050565b600260003373ffffffffffffffffffffffffffffffffffffffff1673ffffffffffffffffffffffffffffffffffffffff16815260200190815260200160002060008481526020019081526020016000206000838152602001908152602001600020819080600181540180825580915050600190039060005260206000200160009091909190916101000a81548173ffffffffffffffffffffffffffffffffffffffff021916908373ffffffffffffffffffffffffffffffffffffffff160217905550505050565b60018280516020810182018051848252602083016020850120818352809550505050505081815481106107d457600080fd5b906000526020600020016000915091509054906101000a900473ffffffffffffffffffffffffffffffffffffffff1681565b6002602052836000526040600020602052826000526040600020602052816000526040600020818154811061083a57600080fd5b9060005260206000200160009350935050509054906101000a900473ffffffffffffffffffffffffffffffffffffffff1681565b80518251146108b2576040517f08c379a00000000000000000000000000000000000000000000000000000000081526004016108a990611676565b60405180910390fd5b60008060003373ffffffffffffffffffffffffffffffffffffffff1673ffffffffffffffffffffffffffffffffffffffff1681526020019081526020016000208054905090506000803373ffffffffffffffffffffffffffffffffffffffff1673ffffffffffffffffffffffffffffffffffffffff1681526020019081526020016000206001816001815401808255809150500390600052602060002090505060008060003373ffffffffffffffffffffffffffffffffffffffff1673ffffffffffffffffffffffffffffffffffffffff16815260200190815260200160002082815481106109a4576109a3611696565b5b90600052602060002090600402019050818160000181905550848160010190816109ce9190611871565b506040518060400160405280600481526020017f4f70656e00000000000000000000000000000000000000000000000000000000815250816003019081610a159190611871565b5060005b8451811015610b3457816002016040518060800160405280838152602001878481518110610a4a57610a49611696565b5b60200260200101518152602001868481518110610a6a57610a69611696565b5b602002602001015181526020016040518060400160405280600481526020017f4f70656e000000000000000000000000000000000000000000000000000000008152508152509080600181540180825580915050600190039060005260206000209060040201600090919091909150600082015181600001556020820151816001019081610af89190611871565b506040820151816002019081610b0e9190611871565b506060820151816003019081610b249190611871565b5050508080600101915050610a19565b505050505050565b6060600260003373ffffffffffffffffffffffffffffffffffffffff1673ffffffffffffffffffffffffffffffffffffffff16815260200190815260200160002060008481526020019081526020016000206000838152602001908152602001600020805480602002602001604051908101604052809291908181526020018280548015610c1f57602002820191906000526020600020905b8160009054906101000a900473ffffffffffffffffffffffffffffffffffffffff1673ffffffffffffffffffffffffffffffffffffffff1681526020019060010190808311610bd5575b5050505050905092915050565b6000604051905090565b600080fd5b600080fd5b600080fd5b600080fd5b6000601f19601f8301169050919050565b7f4e487b7100000000000000000000000000000000000000000000000000000000600052604160045260246000fd5b610c9382610c4a565b810181811067ffffffffffffffff82111715610cb257610cb1610c5b565b5b80604052505050565b6000610cc5610c2c565b9050610cd18282610c8a565b919050565b600067ffffffffffffffff821115610cf157610cf0610c5b565b5b610cfa82610c4a565b9050602081019050919050565b82818337600083830152505050565b6000610d29610d2484610cd6565b610cbb565b905082815260208101848484011115610d4557610d44610c45565b5b610d50848285610d07565b509392505050565b600082601f830112610d6d57610d6c610c40565b5b8135610d7d848260208601610d16565b91505092915050565b600060208284031215610d9c57610d9b610c36565b5b600082013567ffffffffffffffff811115610dba57610db9610c3b565b5b610dc684828501610d58565b91505092915050565b600081519050919050565b600082825260208201905092915050565b6000819050602082019050919050565b6000819050919050565b610e0e81610dfb565b82525050565b600081519050919050565b600082825260208201905092915050565b60005b83811015610e4e578082015181840152602081019050610e33565b60008484015250505050565b6000610e6582610e14565b610e6f8185610e1f565b9350610e7f818560208601610e30565b610e8881610c4a565b840191505092915050565b600081519050919050565b600082825260208201905092915050565b6000819050602082019050919050565b6000608083016000830151610ed76000860182610e05565b5060208301518482036020860152610eef8282610e5a565b91505060408301518482036040860152610f098282610e5a565b91505060608301518482036060860152610f238282610e5a565b9150508091505092915050565b6000610f3c8383610ebf565b905092915050565b6000602082019050919050565b6000610f5c82610e93565b610f668185610e9e565b935083602082028501610f7885610eaf565b8060005b85811015610fb45784840389528151610f958582610f30565b9450610fa083610f44565b925060208a01995050600181019050610f7c565b50829750879550505050505092915050565b6000608083016000830151610fde6000860182610e05565b5060208301518482036020860152610ff68282610e5a565b915050604083015184820360408601526110108282610f51565b9150506060830151848203606086015261102a8282610e5a565b9150508091505092915050565b60006110438383610fc6565b905092915050565b6000602082019050919050565b600061106382610dcf565b61106d8185610dda565b93508360208202850161107f85610deb565b8060005b858110156110bb578484038952815161109c8582611037565b94506110a78361104b565b925060208a01995050600181019050611083565b50829750879550505050505092915050565b600060208201905081810360008301526110e78184611058565b905092915050565b600081519050919050565b600082825260208201905092915050565b6000819050602082019050919050565b600073ffffffffffffffffffffffffffffffffffffffff82169050919050565b60006111468261111b565b9050919050565b6111568161113b565b82525050565b6000611168838361114d565b60208301905092915050565b6000602082019050919050565b600061118c826110ef565b61119681856110fa565b93506111a18361110b565b8060005b838110156111d25781516111b9888261115c565b97506111c483611174565b9250506001810190506111a5565b5085935050505092915050565b600060208201905081810360008301526111f98184611181565b905092915050565b61120a81610dfb565b811461121557600080fd5b50565b60008135905061122781611201565b92915050565b6112368161113b565b811461124157600080fd5b50565b6000813590506112538161122d565b92915050565b60008060006060848603121561127257611271610c36565b5b600061128086828701611218565b935050602061129186828701611218565b92505060406112a286828701611244565b9150509250925092565b600080604083850312156112c3576112c2610c36565b5b600083013567ffffffffffffffff8111156112e1576112e0610c3b565b5b6112ed85828601610d58565b92505060206112fe85828601611218565b9150509250929050565b6113118161113b565b82525050565b600060208201905061132c6000830184611308565b92915050565b6000806000806080858703121561134c5761134b610c36565b5b600061135a87828801611244565b945050602061136b87828801611218565b935050604061137c87828801611218565b925050606061138d87828801611218565b91505092959194509250565b600067ffffffffffffffff8211156113b4576113b3610c5b565b5b602082029050602081019050919050565b600080fd5b60006113dd6113d884611399565b610cbb565b90508083825260208201905060208402830185811115611400576113ff6113c5565b5b835b8181101561144757803567ffffffffffffffff81111561142557611424610c40565b5b8086016114328982610d58565b85526020850194505050602081019050611402565b5050509392505050565b600082601f83011261146657611465610c40565b5b81356114768482602086016113ca565b91505092915050565b60008060006060848603121561149857611497610c36565b5b600084013567ffffffffffffffff8111156114b6576114b5610c3b565b5b6114c286828701610d58565b935050602084013567ffffffffffffffff8111156114e3576114e2610c3b565b5b6114ef86828701611451565b925050604084013567ffffffffffffffff8111156115105761150f610c3b565b5b61151c86828701611451565b9150509250925092565b6000806040838503121561153d5761153c610c36565b5b600061154b85828601611218565b925050602061155c85828601611218565b9150509250929050565b600081905092915050565b600061157c82610e14565b6115868185611566565b9350611596818560208601610e30565b80840191505092915050565b60006115ae8284611571565b915081905092915050565b7f4e487b7100000000000000000000000000000000000000000000000000000000600052602260045260246000fd5b6000600282049050600182168061160057607f821691505b602082108103611613576116126115b9565b5b50919050565b600082825260208201905092915050565b7f4d69736d6174636820696e207375627461736b7320616e64206669656c647300600082015250565b6000611660601f83611619565b915061166b8261162a565b602082019050919050565b6000602082019050818103600083015261168f81611653565b9050919050565b7f4e487b7100000000000000000000000000000000000000000000000000000000600052603260045260246000fd5b60008190508160005260206000209050919050565b60006020601f8301049050919050565b600082821b905092915050565b6000600883026117277fffffffffffffffffffffffffffffffffffffffffffffffffffffffffffffffff826116ea565b61173186836116ea565b95508019841693508086168417925050509392505050565b6000819050919050565b600061176e61176961176484610dfb565b611749565b610dfb565b9050919050565b6000819050919050565b61178883611753565b61179c61179482611775565b8484546116f7565b825550505050565b600090565b6117b16117a4565b6117bc81848461177f565b505050565b5b818110156117e0576117d56000826117a9565b6001810190506117c2565b5050565b601f821115611825576117f6816116c5565b6117ff846116da565b8101602085101561180e578190505b61182261181a856116da565b8301826117c1565b50505b505050565b600082821c905092915050565b60006118486000198460080261182a565b1980831691505092915050565b60006118618383611837565b9150826002028217905092915050565b61187a82610e14565b67ffffffffffffffff81111561189357611892610c5b565b5b61189d82546115e8565b6118a88282856117e4565b600060209050601f8311600181146118db57600084156118c9578287015190505b6118d38582611855565b86555061193b565b601f1984166118e9866116c5565b60005b82811015611911578489015182556001820191506020850194506020810190506118ec565b8683101561192e578489015161192a601f891682611837565b8355505b6001600288020188555050505b50505050505056fea2646970667358221220bf660c673acf3433bd25e4291ca8972e1ae17df4b8dadecb40d6d753cce3ca8964736f6c634300081c0033",
  "linkReferences": {},
  "deployedLinkReferences": {}
}